:100000004BC0000067C0000065C0000063C0000076
:10001000EDC000005FC000005DC000005BC00000DC
:1000200059C0000057C0000055C000000C94A30840
:1000300051C000004FC000004DC000004BC0000088
:1000400049C0000047C0000045C0000043C0000098
:100050002EC600000C944B083DC000003BC00000C1
:1000600039C0000037C0000035C0000033C00000B8
:1000700048C600000C9473082DC000002BC000007F
:1000800075C2000027C0000025C000006364696ECF
:100090006F70737578585B0011241FBECFEFD0E4EA
:1000A000DEBFCDBF13E0A0E0B1E0E4EDFFE100E092
:1000B0000BBF02C007900D92A236B107D9F723E01B
:1000C000A2E6B3E001C01D92AB3CB207E1F758D203
:1000D0000C94E80F95CF809100018F5F8093000111
:1000E00008958091640384FF05C06CE070E082E3B2
:1000F00091E0B9D08091640383FF05C060E170E0B6
:100100008FE391E0B0D08091640382FF05C060E18D
:1001100070E080E591E0A7D08091640381FF05C085
:1001200060E170E081E691E09ED08091640380FF01
:1001300005C060E170E082E791E095C0089580918C
:1001400001018F5F80930101089583E08093B000E7
:1001500082E08093B1001092B40046983E9A5E9877
:10016000569A0895E8E6F0E0808181608083EBE6AE
:10017000F0E08081836080830895A1E0B0E0E3EC4B
:10018000F0E00C949E098983E0DF898187FF04C039
:10019000819591E09093C7038093C8038093B40046
:1001A0008091C803811106C08091B0008F7D80933B
:1001B000B0000DC08091B00080628093B00080914B
:1001C000C703882311F0469A01C046983E9A2196AB
:1001D000E2E00C94BA098091C8039091C703989FFC
:1001E000802D112408958091C60308951F920F92C7
:1001F0000FB60F9211248F939F938091C903909112
:10020000CA0301969093CA038093C9038091C703E0
:10021000811104C08091C6038F5F03C08091C60323
:1002200081508093C6038091C6038F778093C60365
:1002300080916203882319F081E0809363039F918A
:100240008F910F900FBE0F901F9018958091020113
:100250008F5F80930201089582E033D3811102C041
:10026000E4D6FACF0895462FBC0182E012D7F4CF2E
:100270006AE170E086ED91E0F6DF6BE070E081EF1F
:1002800091E0F1DF6AE170E08DEF91E0ECDF6FE18A
:1002900070E088E192E0E7DF60E270E088E392E0FE
:1002A000E2DF60E270E089E592E0DDDF67E170E0C7
:1002B0008AE792E0D8DF67E170E082E992E0D3DF7D
:1002C00067E170E08AEA92E0CEDF67E170E082ECFD
:1002D00092E0C9DF6EE170E08AED92E0C4DF6DE18B
:1002E00070E089EF92E0BFCF40E855E260E070E057
:1002F00082E0EDD540E268E873E082E0D6D468E1C0
:1003000070E087E193E0AFCFA3E2B0E0EAE8F1E08C
:100310000C949C099E012F5D3F4F3F932F932E5FBE
:100320003F4F3F932F9320E333E03F932F939F93CF
:100330008F930E940D0A8AA18F9389A18F932BA17D
:10034000822F992787FD90959F932F9386E393E0C3
:100350009F938F938E010F5F1F4F1F930F930E94E8
:10036000DF09BC01C8017FDF0FB6F894DEBF0FBE06
:10037000CDBF8BA18635C9F18CF48035B1F13CF449
:10038000883409F18C3409F1843451F52EC0833559
:1003900021F1843551F1823519F527C0803729F1D3
:1003A0003CF4883681F08C3681F08436C9F41DC067
:1003B000833799F01CF4823799F417C08437A9F079
:1003C000863771F412C054DF10C09091620381E04F
:1003D000911180E08093620308C089A1CEDE05C040
:1003E0006BE170E085E493E03EDF61E070E083EB79
:1003F00091E039DFA396E4E0BBC7A0E2B0E0E2E021
:10040000F2E09AC782E04DD2E09187032091650324
:10041000309166038E1751F1F0E0E857FC4F808170
:10042000E1E0F0E0EC0FFD1FE20FF31F80838D3061
:1004300049F08A3039F08093670361E070E087E625
:1004400093E011DF8091650390916603019690938C
:10045000660380936503809187038F3119F41092AE
:100460008703D0CF8F5F80938703CCCF232B21F1DD
:100470006DE070E08E010F5F1F4FC80195D70097A8
:1004800069F09C01201B310BFC01108220323105E8
:100490006CF4FE01E20FF31F128208C06AE070E004
:1004A000C80182D7009741F0FC011082C8012CDFFF
:1004B0001092660310926503A096E4E059C78091FC
:1004C00003018F5F809303010895641B750BFC018A
:1004D0002281338184819581820F931F9C01269F05
:1004E000C001279F900D369F900D11240895FC01A7
:1004F000641B750B82819381689FA001699F500DD9
:10050000789F500D112464817581269FC001279F1B
:10051000900D369F900D1124840F951F0895209102
:1005200091002460209391002091910028602093F5
:1005300091008233910571F08436910529F00A9774
:1005400031F487E99EE108C08DE093E005C08EE4B8
:1005500090E002C08BE196E0909399008093980020
:100560008091710082608093710008951F920F92B4
:100570000FB60F9211240F900FBE0F901F90189579
:10058000A0E2B0E0E5ECF2E0D3C684B78093640368
:100590008FE184BF83E891E063D161E080E07FD1A7
:1005A0008FE891E05DD1A0DE40D59BDD63E170E096
:1005B0008FE991E058DE5CDE61E070E083EB91E072
:1005C00052DE39D17894C1DDCDDD85EBE82E81E0B6
:1005D000F82E8E010F5F1F4F97ECC92E91E0D92E98
:1005E00024D50BDF80916303882309F11092630304
:1005F0008091C9039091CA039F938F93FF92EF92CA
:100600001F930F93DCD6BC01C8012DDE8091C60379
:100610001F928F93DF92CF921F930F93D0D6BC017E
:10062000C80121DE0FB6F894DEBF0FBECDBF8091AA
:10063000C9039091CA038115914091F680E09DDD38
:10064000CFCF81E090E06F9364E06A95F1F76F910E
:100650000197C9F708950F931F93CF93DF9317B1B5
:100660003D982898299AC0E0D0E0EBDF2A9AE9DF8C
:1006700006B12A98E6DF2A9AE4DF2A98249605FF35
:1006800010C09E0140E050E08091AC039091AD031A
:10069000A091AE03B091AF03281739074A075B0753
:1006A00020F39E0140E050E08091AC039091AD03B7
:1006B000A091AE03B091AF03281739074A075B0733
:1006C00028F082E390E0A0E0B0E004C080E395E78A
:1006D000A0E0B0E08093AC039093AD03A093AE0391
:1006E000B093AF0317B9DF91CF911F910F91089588
:1006F00028B190E08F709070880F991F880F991F14
:10070000237C282B28B92A9A9CDF2A989ACFA2E02A
:10071000B0E0ECE8F3E00FC6182F4A83698357D0A6
:100720009ADFF7B008B1299869814A81662311F0F0
:10073000289A01C0289887B18C6387B9413021F08D
:10074000812F82958F70D4DF812F8F70D1DFF7B822
:1007500008B92296E5E00BC660E042E0D8CF61E040
:1007600042E0D5CF60E041E0D2CF3D98459A80E3AA
:1007700095E7A0E0B0E08093AC039093AD03A09325
:10078000AE03B093AF03209A219A229A8EE190E0B3
:1007900021D583E0E7DF86E090E01CD583E0E2DF4F
:1007A00082E090E017D583E0DDDF82E090E012D5B3
:1007B00082E0D8DF82E090E00DD588E2CDDF88E0EE
:1007C000CBDF81E0C9DF86E0C7DF8CE0C5CF809159
:1007D000B003882321F481E08093B003C6CF08954D
:1007E00081E0BADF8091A8039091A903009711F1ED
:1007F000A0E0B0E208C0E091A803F091A903E20FE5
:10080000F31FB083AF5F2A2F30E08091040190E0A6
:1008100001976091050170E0869FA001879F500DB0
:10082000969F500D1124241735072CF31092AB031B
:100830001092AA030895D4CF0895EF92FF92CF9318
:10084000DF93E82EE7017E01F92EE70101C087DF83
:1008500089918823E1F7DF91CF91FF90EF90089580
:10086000ECCF0895A5E0B0E0E7E3F4E066C5182F0B
:1008700080E8898380EC8A8384E98B8384ED8C8390
:10088000FE01E60FF11D8181810F6D8365DF1093FD
:10089000AB036D816093AA032596E3E06AC5E2CFBE
:1008A0000895282F30E0F901EE0FFF1F43E0220FDB
:1008B000331F4A95E1F7E20FF31FEA5FFE4F828193
:1008C0000895282F30E0F901EE0FFF1F73E0220F8B
:1008D000331F7A95E1F7E20FF31FEA5FFE4F418184
:1008E000282F30E0F901EE0FFF1F53E0220F331FD6
:1008F0005A95E1F7E20FF31FEA5FFE4F81E0938123
:10090000491380E00895282F30E0F901EE0FFF1F12
:10091000B3E0220F331FBA95E1F7E20FF31FEA5F4E
:10092000FE4F408551854115510509F452C0282FCD
:1009300030E0F901EE0FFF1F73E0220F331F7A95AD
:10094000E1F7E20FF31FEA5FFE4F7281282F30E0DC
:10095000F901EE0FFF1FB3E0220F331FBA95E1F745
:10096000E20FF31FEA5FFE4F9481791790F5282F6D
:1009700030E0F901EE0FFF1F73E0220F331F7A956D
:10098000E1F7E20FF31FEA5FFE4F9281490F511D1D
:10099000FA016083282F30E0F901EE0FFF1F53E0CA
:1009A000220F331F5A95E1F7E20FF31FEA5FFE4F64
:1009B00092819F5F282F30E0F901EE0FFF1FB3E017
:1009C000220F331FBA95E1F7E20FF31FEA5FFE4FE4
:1009D0009283282F30E0F901EE0FFF1F73E0220F02
:1009E000331F7A95E1F7E20FF31FEA5FFE4F428172
:1009F000282F30E0F901EE0FFF1F53E0220F331FC5
:100A00005A95E1F7E20FF31FEA5FFE4F9481491711
:100A100001F5282F30E0F901EE0FFF1F93E0220FC0
:100A2000331F9A95E1F7E20FF31FEA5FFE4F9581BE
:100A3000992379F0282F30E0F901EE0FFF1FB3E082
:100A4000220F331FBA95E1F7E20FF31FEA5FFE4F63
:100A5000128208950F931F93182F823009F474C0E7
:100A6000882319F4E1ECF0E002C0E9ECF0E08081C9
:100A70008F778083812F90E0FC01EE0FFF1F03E052
:100A8000880F991F0A95E1F7E80FF91FEA5FFE4FFB
:100A9000808591850097A1F1212F30E0F901EE0FBB
:100AA000FF1FA3E0220F331FAA95E1F7E20FF31F08
:100AB000EA5FFE4F9281212F30E0F901EE0FFF1F18
:100AC00063E0220F331F6A95E1F7E20FF31FEA5F3D
:100AD000FE4F84819817A0F4112319F4E0ECF0E0A4
:100AE00002C0E8ECF0E0808187FF0AC0112319F40E
:100AF000E6ECF0E002C0EEECF0E06081812F03DF75
:100B0000212F30E0F901EE0FFF1F43E0220F331FCA
:100B10004A95E1F7E20FF31FEA5FFE4F80818823D9
:100B200009F057C0112319F4E1ECF0E002C0E9EC40
:100B3000F0E08081806880834CC080911F01882311
:100B400019F010921C0145C080912201909123015F
:100B5000009709F43EC090911C0180911E019817E6
:100B6000C0F58091B103882399F439D38093B10300
:100B700010E00AC031D3E02FF0E03197E11BF1091A
:100B8000EE54FC4F80831F5F0091B103101790F368
:100B9000A091B103AA23E9F080911C01E091220108
:100BA000F0912301E80FF11DA150A093B103B0E033
:100BB000AE54BC4F8C91808380911C018F5F8093D9
:100BC0001C0190911C0180911E01981709F0BCCF67
:100BD000B4CF1F910F910895823051F0882319F4FA
:100BE000E1ECF0E002C0E9ECF0E090819F779083C7
:100BF000A82FB0E0FD01EE0FFF1F53E0AA0FBB1FAF
:100C00005A95E1F7EA0FFB1FEA5FFE4F7187608795
:100C1000682F70E0FB01EE0FFF1F93E0660F771F58
:100C20009A95E1F7E60FF71FEA5FFE4F1282682FF1
:100C300070E0FB01EE0FFF1FA3E0660F771FAA9580
:100C4000E1F7E60FF71FEA5FFE4F4483482F50E0BD
:100C5000FA01EE0FFF1F63E0440F551F6A95E1F79D
:100C6000E40FF51FEA5FFE4F25838230D9F0282F6D
:100C700030E0F901EE0FFF1F43E0220F331F4A95CA
:100C8000E1F7E20FF31FEA5FFE4F9081992351F4E1
:100C9000882319F4E1ECF0E002C0E9ECF0E0808197
:100CA00080688083089521E097CFFDCF08951F923B
:100CB0000F920FB60F920BB60F9211242F933F9302
:100CC0004F935F936F937F938F939F93AF93BF9354
:100CD000EF93FF936091C60080E015DEFF91EF91E6
:100CE000BF91AF919F918F917F916F915F914F9144
:100CF0003F912F910F900BBE0F900FBE0F901F9042
:100D000018951F920F920FB60F920BB60F921124E7
:100D10002F933F934F935F936F937F938F939F9303
:100D2000AF93BF93EF93FF936091CE0081E0EBDD33
:100D3000FF91EF91BF91AF919F918F917F916F91B3
:100D40005F914F913F912F910F900BBE0F900FBE6F
:100D50000F901F901895882319F4E1ECF0E002C081
:100D6000E9ECF0E08081806280830895882319F4A3
:100D7000E1ECF0E002C0E9ECF0E080818F7D80835F
:100D80000895282F30E0F901EE0FFF1F93E0220FA6
:100D9000331F9A95E1F7E20FF31FEA5FFE4F2681BA
:100DA00037812115310591F1282F30E0F901EE0F3F
:100DB000FF1FA3E0220F331FAA95E1F7E20FF31FF5
:100DC000EA5FFE4F4181282F30E0F901EE0FFF1F4F
:100DD00063E0220F331F6A95E1F7E20FF31FEA5F2A
:100DE000FE4F9381491790F4282F30E0F901EE0F60
:100DF000FF1F43E0220F331F4A95E1F7E20FF31F75
:100E0000EA5FFE4F9081992309F4A5CFAFCF8230DE
:100E100029F1282F30E0F901EE0FFF1F53E0220FD8
:100E2000331F5A95E1F7E20FF31FEA5FFE4F9081FF
:100E3000992349F4882319F4E1ECF0E002C0E9ECCD
:100E4000F0E098E908C0882319F4E1ECF0E002C072
:100E5000E9ECF0E098E1908394DF7894089588239A
:100E600019F0813029F402C080E0D1CF81E0CFCFEA
:100E70000895A0E0B0E0EEE3F7E05BC2D82E7A017F
:100E80008B01EDDF8D2D8230F1F0DD2019F4C4EC03
:100E9000D0E002C0CCECD0E0C801B70128EF3FEFB2
:100EA0004FEF5FEF00D26050734D8E4C9E4FA80104
:100EB0009701E4E0220F331F441F551FEA95D1F735
:100EC00001D239832883CDB7DEB7E7E04EC2D1CF58
:100ED0000895282F30E0F901EE0FFF1F73E0220F75
:100EE000331F7A95E1F7E20FF31FEA5FFE4F468169
:100EF00057814115510509F465C0282F30E0F901EB
:100F0000EE0FFF1F93E0220F331F9A95E1F7E20FD8
:100F1000F31FEA5FFE4F6181282F30E0F901EE0FE9
:100F2000FF1FA3E0220F331FAA95E1F7E20FF31F83
:100F3000EA5FFE4F9381691708F044C0882319F4D3
:100F4000E0ECF0E002C0E8ECF0E0908195FF3AC000
:100F5000882319F4A6ECB0E002C0AEECB0E0282F74
:100F600030E0F901EE0FFF1F63E0220F331F6A9597
:100F7000E1F7E20FF31FEA5FFE4F9181490F511D28
:100F8000FA0190819C93282F30E0F901EE0FFF1FAA
:100F900093E0220F331F9A95E1F7E20FF31FEA5F08
:100FA000FE4F91819F5F282F30E0F901EE0FFF1F68
:100FB000A3E0220F331FAA95E1F7E20FF31FEA5FC8
:100FC000FE4F9183DECE1F93182F823021F0CEDEAC
:100FD000812F7FDF1CC0809120019091210100971B
:100FE000B1F030911B0120911D01321780F406C031
:100FF00080911B018F5F80931B01EDCF20911B011E
:10100000820F911DFC018081EED0882389F71F910A
:10101000089580E0D8DF81E0D6DF82E0D4DF80E091
:1010200019DD81E017DD82E015CDF3CF0895282F7B
:1010300030E0F901EE0FFF1F93E0220F331F9A9566
:10104000E1F7E20FF31FEA5FFE4F77836683282FF5
:1010500030E0F901EE0FFF1FA3E0220F331FAA9526
:10106000E1F7E20FF31FEA5FFE4F1182282F30E015
:10107000F901EE0FFF1F63E0220F331F6A95E1F7BE
:10108000E20FF31FEA5FFE4F4383823009F079CE0F
:101090000895CDCF08951F920F920FB60F920BB601
:1010A0000F9211242F933F934F935F936F937F93EE
:1010B0008F939F93AF93BF93EF93FF9380E009DFEC
:1010C000FF91EF91BF91AF919F918F917F916F9120
:1010D0005F914F913F912F910F900BBE0F900FBEDC
:1010E0000F901F9018951F920F920FB60F920BB68C
:1010F0000F9211242F933F934F935F936F937F939E
:101100008F939F93AF93BF93EF93FF9381E0E1DEC3
:10111000FF91EF91BF91AF919F918F917F916F91CF
:101120005F914F913F912F910F900BBE0F900FBE8B
:101130000F901F9018956F9364E06A95F1F76F9187
:101140000197C9F708952F928F939F932FB680919F
:10115000BB039091BC0301968093BB039093BC03A7
:1011600090E08091BD03891F8093BD039091C303DC
:101170009C5F9093C3038091C20380519742C0F05B
:101180009093C3038093C2038091BE039091BF03E9
:1011900001968093BE039093BF0390E08091C003BB
:1011A000891F8093C0038091C103891F8093C1036D
:1011B0002FBE9F918F912F901895CF93DF93EC01C5
:1011C00004C088EE93E0B7DF21972097D1F7DF9135
:1011D000CF910895F2CF08958FEF64E041C083E886
:1011E00067E03ED0F9CF1F93182F982F9095991F45
:1011F0009927991F85E8891B65E032D0812F8F7769
:1012000065E02ED01F9108956F9364E06A95F1F721
:101210006F910197C9F70895A1E0B0E0E1E1F9E02D
:101220008CC0182F249908C02C9906C02C9A8EE1E6
:1012300090E06983E9DF698184B1806A84B9269886
:10124000812F837080656C7A862B8CBD81E012FFC4
:1012500080E08DBD81E090E0B0DF2196E3E089C0C1
:101260000F931F93082F162F0CB406FC03C080E0C9
:1012700064E0D2DF0CB404FC03C08CB580618CBD8B
:101280000EBD03C00CB404FE0AC00DB407FEFACFB5
:10129000112319F0812F90E0B7DF8EB501C080E0F7
:1012A0001F910F910895DB018F939F932DD0BF91D4
:1012B000AF91A29F800D911DA39F900DB29F900DA5
:1012C00011240895A1E21A2EAA1BBB1BFD010DC01B
:1012D000AA1FBB1FEE1FFF1FA217B307E407F507E6
:1012E00020F0A21BB30BE40BF50B661F771F881FC2
:1012F000991F1A9469F760957095809590959B0158
:10130000AC01BD01CF01089540D0A59F900DB49FC1
:10131000900DA49F800D911D112408952F923F924E
:101320004F925F926F927F928F929F92AF92BF92F5
:10133000CF92DF92EF92FF920F931F93CF93DF93A1
:10134000CDB7DEB7CA1BDB0B0FB6F894DEBF0FBEFE
:10135000CDBF09942A88398848885F846E847D844B
:101360008C849B84AA84B984C884DF80EE80FD804D
:101370000C811B81AA81B981CE0FD11D0FB6F894C3
:10138000DEBF0FBECDBFED010895A29FB001B39F98
:10139000C001A39F700D811D1124911DB29F700D7E
:1013A000811D1124911D0895FC018191861721F062
:1013B0008823D9F7992708953197CF0108950F937E
:1013C0001F93CF93DF93CDB7DEB72E970FB6F89468
:1013D000DEBF0FBECDBF0D891E8986E08C831A83C8
:1013E00009838FEF9FE79E838D83AE01475E5F4F3A
:1013F0006F89788DCE01019631D0EF81F885E00FAD
:10140000F11F10822E960FB6F894DEBF0FBECDBF2F
:10141000DF91CF911F910F910895CF93DF93CDB7B7
:10142000DEB72E970FB6F894DEBF0FBECDBF85E0B6
:101430008C838B899C899A838983AE01495E5F4F37
:101440006D897E89CE01019687D32E960FB6F894CA
:10145000DEBF0FBECDBFDF91CF9108952F923F9297
:101460004F925F926F927F928F929F92AF92BF92B4
:10147000CF92DF92EF92FF920F931F93CF93DF9360
:10148000CDB7DEB72C970FB6F894DEBF0FBECDBF39
:101490007C016B018A01FC0117821682838181FF26
:1014A000B0C1CE0101964C01F7019381F60193FD85
:1014B000859193FF81916F01882309F49EC1853244
:1014C00039F493FD859193FF81916F01853221F469
:1014D000B70190E0D1D4E8CF512C312C20E020325C
:1014E000A0F48B3269F030F4803259F0833269F421
:1014F00020612CC08D3239F0803339F4216026C050
:101500002260246023C0286021C027FD27C030ED61
:10151000380F3A3078F426FF06C0FAE05F9E300DAF
:101520001124532E13C08AE0389E300D1124332E1F
:1015300020620CC08E3221F426FD5FC1206406C0FB
:101540008C3611F4206802C0883641F4F60193FD10
:10155000859193FF81916F018111C1CF982F9F7D5C
:101560009554933028F40C5F1F4FFFE3F9830DC0AF
:10157000833631F0833771F0833509F057C021C0CD
:10158000F801808189830E5F1F4F44244394512CBE
:10159000540114C03801F2E06F0E711CF801A080F4
:1015A000B18026FF03C0652D70E002C06FEF7FEFB2
:1015B000C5012C8718D42C0183012C852F77222E6E
:1015C00016C03801F2E06F0E711CF801A080B180E6
:1015D00026FF03C0652D70E002C06FEF7FEFC501ED
:1015E0002C87F6D32C012C852068222E830123FC26
:1015F00019C0832D90E048165906A0F4B70180E287
:1016000090E03AD43A94F5CFF50127FC859127FE76
:1016100081915F01B70190E02FD431103A94F1E04D
:101620004F1A51084114510479F7DEC0843611F085
:10163000893631F5F80127FF07C060817181828109
:1016400093810C5F1F4F08C060817181882777FDEF
:101650008095982F0E5F1F4F2F76B22E97FF09C0EF
:1016600090958095709561957F4F8F4F9F4F206823
:10167000B22E2AE030E0A4014AD4A82EA81843C014
:10168000853729F42F7EB22E2AE030E025C0F22FD4
:10169000F97FBF2E8F36C1F018F4883579F0ADC0D0
:1016A000803719F0883721F0A8C02F2F2061B22E83
:1016B000B4FE0DC08B2D8460B82E09C024FF0AC073
:1016C0009F2F9660B92E06C028E030E005C020E1CB
:1016D00030E002C020E132E0F801B7FE07C06081CF
:1016E0007181828193810C5F1F4F06C0608171817F
:1016F00080E090E00E5F1F4FA40109D4A82EA81827
:10170000FB2DFF77BF2EB6FE0BC02B2D2E7FA51411
:1017100050F4B4FE0AC0B2FC08C02B2D2E7E05C0CA
:101720007A2C2B2D03C07A2C01C0752C24FF0DC000
:10173000FE01EA0DF11D8081803311F4297E09C07C
:1017400022FF06C07394739404C0822F867809F038
:10175000739423FD12C020FF06C05A2C731418F492
:10176000530C5718732C731460F4B70180E290E0A7
:101770002C8782D373942C85F6CF731410F437180A
:1017800001C0312C24FF11C0B70180E390E02C8709
:1017900073D32C8522FF16C021FF03C088E590E09B
:1017A00002C088E790E0B7010CC0822F867851F024
:1017B00021FD02C080E201C08BE227FD8DE2B7016E
:1017C00090E05AD3A51430F4B70180E390E054D3ED
:1017D0005A94F8CFAA94F401EA0DF11D8081B70163
:1017E00090E04AD3A110F6CF332009F45DCEB701C3
:1017F00080E290E041D33A94F7CFF7018681978158
:1018000002C08FEF9FEF2C960FB6F894DEBF0FBE8D
:10181000CDBFDF91CF911F910F91FF90EF90DF909F
:10182000CF90BF90AF909F908F907F906F905F9080
:101830004F903F902F90089520FD09C0FC0123FD9B
:1018400005C022FF02C073836283518340830895E1
:1018500044FD10C046FD10C0DB01FC01AA0FBB1FF8
:10186000EE1FFF1F1094D1F76A0F7B1F8E1F9F1F63
:1018700031E003C033E001C034E0660F771F881FFA
:10188000991F3150D1F7620F711D811D911D08956F
:101890000F931F93CF93DF938C01C801AFD2EC015C
:1018A00097FD06C082D2892BC1F7B801CE0116D3AD
:1018B000CE01DF91CF911F910F9108958F929F924A
:1018C000AF92CF92DF92EF92FF920F931F93CF933D
:1018D000DF93EC01A62E4A01022F90D2AC015527CE
:1018E0004B32510521F04D32510549F40068AA945C
:1018F00011F480E060C0CE0181D297FDFACF102FA5
:101900001D7F302F3073F1F48033E1F4FF24FA941B
:10191000FA0C09F43DC0CE0171D297FD39C0382FC1
:101920003F7D383549F41264AA94AA9489F1CE0116
:1019300065D297FF07C02CC006FF02C0126001C02D
:101940001261AF2CC12CD12C760120ED280F28304C
:1019500078F014FF03C0BE01C1D217C02A3040F096
:1019600016FFF9CF2F7D3FEE320F3630A0F727500C
:10197000412FC701B6016CDF6B017C011260AA9494
:1019800051F0CE013BD297FFE0CF11FD04C0B1CFA3
:10199000C12CD12C760117FF08C0F094E094D094AC
:1019A000C094C11CD11CE11CF11C212FB701A60160
:1019B000C40142DF81E0DF91CF911F910F91FF9031
:1019C000EF90DF90CF90AF909F908F9008957F928F
:1019D0008F929F92AF92BF92CF92DF92EF92FF923F
:1019E0000F931F93CF93DF93CDB7DEB7A1970FB6B9
:1019F000F894DEBF0FBECDBF5C017A018E010F5F90
:101A00001F4F680180E2D8011D928A95E9F7F50120
:101A1000738040E050E0812CB0E0912C81E090E0B8
:101A2000F90173FCA59173FEA1918F017A2F9F019B
:101A3000A11103C080E090E07BC0AE3519F44115E0
:101A4000510559F1E92DF0E0E417F5073CF4AD3507
:101A500069F1AD3219F4BB2319F103C0B11101C012
:101A60008A2EE72FE695E695E69586010E0F111D65
:101A7000F801A72FA7708C0102C0000F111FAA95B3
:101A8000E2F7D801B081BA2BB083781559F07815F8
:101A900010F47F5FE6CF7150E4CF9924939403C094
:101AA000B1E001C0B0E04F5F5F4FBACFBB2319F088
:101AB0008E8180628E83911003C09924939415C007
:101AC000F601CE018196208120952193E817F90730
:101AD000D1F7F3CFE114F10429F0D7018C93F7018A
:101AE00031967F016150F1F0912CC50169A386D137
:101AF00069A197FD15C0282F269526952695F601F4
:101B0000E20FF11D208130E0AC014770552702C083
:101B1000359527954A95E2F720FDDCCFB501DED15A
:101B2000911088CFE114F10411F0D7011C92C80183
:101B3000A1960FB6F894DEBF0FBECDBFDF91CF9157
:101B40001F910F91FF90EF90DF90CF90BF90AF90DB
:101B50009F908F907F9008954F925F927F928F9287
:101B60009F92AF92BF92CF92DF92EF92FF920F932C
:101B70001F93CF93DF931F92CDB7DEB78C012B015C
:101B80007A01FC0117821682A12CF801D380F201A0
:101B9000D3FC8591D3FE8191382F2F01882309F43E
:101BA000EEC090E0398301D13981892B19F0C80149
:101BB0006FDEEBCF353241F4F201D3FC3591D3FE29
:101BC00031912F01353259F4C801398317D1398148
:101BD00097FDD3C03817C9F2B80180D1D0C03A32CE
:101BE00041F4D3FC3591D3FE31912F01BB24B39442
:101BF00001C0B12C712C20ED230F2A3088F4FB2D6D
:101C0000F260BF2E672D70E080E090E040E220DEC1
:101C1000762EF201D3FC3591D3FE31912F01EBCF1B
:101C2000B1FE03C0711003C0AAC077247A9438367D
:101C300019F03C3661F014C0F201D3FC3591D3FEAB
:101C400031912F01383661F4FB2DF860BF2E8B2DBA
:101C50008460B82EF201D3FC3591D3FE31912F016F
:101C6000332309F48CC0632F70E08CE890E0398353
:101C7000A4D03981892B09F482C0B0FC07C0F701D8
:101C8000C080D180C70102967C0102C0C12CD12C3A
:101C90003E3649F4F8014681578160E070E02B2D13
:101CA000C601CADD72CF333699F4B1FC02C0772485
:101CB0007394C801A3D097FD60C0C114D10429F06A
:101CC000F6018083C60101966C017A9491F751C0A8
:101CD0003B3551F49201A601672DC80178DE2C0135
:101CE000009709F046C040C0C8013983D1DD398171
:101CF00097FD43C03F3651F128F4343619F1393697
:101D000061F128C0333769F03537E1F023C0C114E1
:101D1000D10429F0F6018082C60101966C017A9403
:101D200059F0C8016BD04C0197FD06C03ED0892BFD
:101D300071F3B801C401D2D0C114D104D1F0F601BD
:101D4000108217C0FB2DF062BF2E07C08B2D806163
:101D5000B82E03C09B2D9064B92E2B2DA601672DA4
:101D6000C801ACDD811105C0F8018381807329F4BD
:101D700006C0B0FC0ACFA39408CFAA2019F08A2D80
:101D800090E002C08FEF9FEF0F90DF91CF911F91F6
:101D90000F91FF90EF90DF90CF90BF90AF909F900A
:101DA0008F907F905F904F90089591110EC1803277
:101DB00019F089508550D0F70895FC01059006165A
:101DC00021F00020D9F7C00108953197CF0108957F
:101DD000FC010590615070400110D8F780959095F6
:101DE0008E0F9F1F0895FC016150704001900110FB
:101DF000D8F7809590958E0F9F1F0895CF93DF930E
:101E0000EC012B8120FF33C026FF0AC02F7B2B83E0
:101E10008E819F8101969F838E838A8190E029C065
:101E200022FF0FC0E881F9818081992787FD909575
:101E3000009719F420622B831AC03196F983E88346
:101E40000EC0EA85FB85099597FF09C02B81019695
:101E500011F480E101C080E2822B8B8308C02E81C7
:101E60003F812F5F3F4F3F832E83992702C08FEF23
:101E70009FEFDF91CF9108950F931F93CF93DF933F
:101E8000182F092FEB018B8181FD03C08FEF9FEF8E
:101E900020C082FF10C04E815F812C813D8142179E
:101EA00053077CF4E881F9819F012F5F3F4F39830D
:101EB0002883108306C0E885F985812F0995892B31
:101EC00029F72E813F812F5F3F4F3F832E83812F44
:101ED000902FDF91CF911F910F910895FB012381E6
:101EE00020FF12C026FD10C08F3F3FEF930761F027
:101EF00082832F7D206423832681378121503109FD
:101F000037832683992708958FEF9FEF0895FA016D
:101F1000AA27283051F1203181F1E8946F936E7F28
:101F20006E5F7F4F8F4F9F4FAF4FB1E03ED0B4E019
:101F30003CD0670F781F891F9A1FA11D680F791F5A
:101F40008A1F911DA11D6A0F711D811D911DA11D6B
:101F500020D009F468943F912AE0269F112430197B
:101F6000305D3193DEF6CF010895462F4770405D16
:101F70004193B3E00FD0C9F7F6CF462F4F70405DC5
:101F80004A3318F0495D31FD4052419302D0A9F720
:101F9000EACFB4E0A6959795879577956795BA951A
:101FA000C9F700976105710508959B01AC010A2EE0
:101FB00006945795479537952795BA95C9F7620FB7
:101FC000731F841F951FA01D0895992788270895C2
:041FD000F894FFCFB3
:101FD40001010101021000000000000000000000E7
:101FE40000000000000000000000010000000000EC
:101FF40000000000FFFFFFFFFFFFFFFF0000CB0317
:1020040020004A5441472052657365740D0A0057F5
:1020140061746368646F672052657365740D0A00A8
:1020240042726F776E6F75742052657365740D0A12
:102034000045787465726E616C2052657365740D29
:102044000A00506F7765722D6F6E20526573657448
:102054000D0A0057616974696E6720666F7200200B
:1020640073657269616C20636F6E6E2E2E2E00573D
:10207400656C636F6D6520746F206C616220332121
:102084000D0A003E00656E636F64657220636E74B2
:102094003A202575202000706F736974696F6E3A59
:1020A4002025750D0A0075736167653A202020208C
:1020B4003C636F6D6D616E643E5B6172675D0D0ABA
:1020C40000636F6D6D616E643A200D0A0020206C10
:1020D40020202020202020546F67676C65204C6FDF
:1020E4006767696E670D0A00202076202020202073
:1020F4002020566965772063757272656E74207648
:10210400616C7565730D0A002020723C6172673E34
:10211400202053657420706F736974696F6E205B3F
:10212400302C3132375D0D0A002020733C61726718
:102134003E2020536574207370656564205B2D32E6
:1021440035352C3235355D0D0A00202050202020F5
:1021540020202020496E637265617365204B700DE9
:102164000A00202070202020202020204465637253
:1021740065617365204B700D0A00202044202020E7
:1021840020202020496E637265617365204B640DC5
:102194000A0020206420202020202020446563722F
:1021A40065617365204B640D0A002020743C6172E4
:1021B400673E202045786563757465207472616A92
:1021C4006563746F72790D0A002020682020202036
:1021D4002020205072696E742074686973206D65C4
:1021E4006E750D0A0D0A00555342205365726961DC
:1021F4006C20496E697469616C697A65640D0A00C2
:102204002563202564000D0A4F703A256320563A51
:1022140025640D0A00436F6D6D616E6420646F6503
:1022240073206E6F7420636F6D707574652E0D0A64
:022234000000A8
:00000001FF
